{
  "contractName": "Actor",
  "abi": [
    {
      "inputs": [
        {
          "name": "_id",
          "type": "address"
        },
        {
          "name": "_name",
          "type": "bytes32"
        },
        {
          "name": "_role",
          "type": "uint256"
        }
      ],
      "payable": false,
      "stateMutability": "nonpayable",
      "type": "constructor"
    },
    {
      "constant": false,
      "inputs": [
        {
          "name": "idToCompare",
          "type": "address"
        }
      ],
      "name": "isThisActor",
      "outputs": [
        {
          "name": "",
          "type": "bool"
        }
      ],
      "payable": false,
      "stateMutability": "nonpayable",
      "type": "function"
    },
    {
      "constant": false,
      "inputs": [
        {
          "name": "roleToCompare",
          "type": "uint256"
        }
      ],
      "name": "hasThisRole",
      "outputs": [
        {
          "name": "",
          "type": "bool"
        }
      ],
      "payable": false,
      "stateMutability": "nonpayable",
      "type": "function"
    },
    {
      "constant": false,
      "inputs": [],
      "name": "getId",
      "outputs": [
        {
          "name": "",
          "type": "address"
        }
      ],
      "payable": false,
      "stateMutability": "nonpayable",
      "type": "function"
    },
    {
      "constant": false,
      "inputs": [],
      "name": "getName",
      "outputs": [
        {
          "name": "",
          "type": "bytes32"
        }
      ],
      "payable": false,
      "stateMutability": "nonpayable",
      "type": "function"
    },
    {
      "constant": false,
      "inputs": [],
      "name": "getRole",
      "outputs": [
        {
          "name": "",
          "type": "uint256"
        }
      ],
      "payable": false,
      "stateMutability": "nonpayable",
      "type": "function"
    }
  ],
  "bytecode": "0x6060604052341561000f57600080fd5b60405160608061031e83398101604052808051906020019091908051906020019091908051906020019091905050826000806101000a81548173ffffffffffffffffffffffffffffffffffffffff021916908373ffffffffffffffffffffffffffffffffffffffff16021790555081600181600019169055508060028190555050505061027d806100a16000396000f30060606040526004361061006d576000357c0100000000000000000000000000000000000000000000000000000000900463ffffffff16806317d7de7c1461007257806336ad823f146100a35780635d1ca631146100de5780638524f5a414610133578063fde0817414610184575b600080fd5b341561007d57600080fd5b6100856101ad565b60405180826000191660001916815260200191505060405180910390f35b34156100ae57600080fd5b6100c460048080359060200190919050506101b7565b604051808215151515815260200191505060405180910390f35b34156100e957600080fd5b6100f16101c5565b604051808273ffffffffffffffffffffffffffffffffffffffff1673ffffffffffffffffffffffffffffffffffffffff16815260200191505060405180910390f35b341561013e57600080fd5b61016a600480803573ffffffffffffffffffffffffffffffffffffffff169060200190919050506101ee565b604051808215151515815260200191505060405180910390f35b341561018f57600080fd5b610197610247565b6040518082815260200191505060405180910390f35b6000600154905090565b600081600254149050919050565b60008060009054906101000a900473ffffffffffffffffffffffffffffffffffffffff16905090565b60008173ffffffffffffffffffffffffffffffffffffffff166000809054906101000a900473ffffffffffffffffffffffffffffffffffffffff1673ffffffffffffffffffffffffffffffffffffffff16149050919050565b60006002549050905600a165627a7a7230582003ff0323b65662d00d39f553cc4f2674c5fa04b177284a2558a55d5edc97d4e00029",
  "source": "pragma solidity ^0.4.17;\n\ncontract Actor {\n    address private id;\n    bytes32 private name;\n    uint256 private role;\n    \n    function Actor(address _id, bytes32 _name, uint256 _role) public {\n        id = _id;\n        name = _name;\n        role = _role;\n    }\n    \n    function isThisActor(address idToCompare) public returns (bool) {\n        return id == idToCompare;\n    }\n    \n    function hasThisRole(uint256 roleToCompare) public returns (bool) {\n        return role == roleToCompare;\n    }\n    \n    function getId() public returns (address) {\n        return id;\n    }\n    \n    function getName() public returns (bytes32) {\n        return name;\n    }\n    \n    function getRole() public returns (uint256) {\n        return role;\n    }\n}",
  "sourcePath": "/Users/sergiopereira/Library/BlockchaingersHackathon/contracts/Actor.sol",
  "compiler": {
    "name": "solc",
    "version": "0.4.21+commit.dfe3193c.Emscripten.clang"
  },
  "schemaVersion": "2.0.0",
  "updatedAt": "2018-04-07T14:45:48.113Z"
}