{
  "contractName": "ActorRegistry",
  "abi": [
    {
      "inputs": [],
      "payable": true,
      "stateMutability": "payable",
      "type": "constructor"
    },
    {
      "constant": false,
      "inputs": [
        {
          "name": "actorAddress",
          "type": "address"
        },
        {
          "name": "actorName",
          "type": "bytes32"
        },
        {
          "name": "actorRole",
          "type": "uint256"
        }
      ],
      "name": "registerActor",
      "outputs": [
        {
          "name": "",
          "type": "bool"
        }
      ],
      "payable": false,
      "stateMutability": "nonpayable",
      "type": "function"
    },
    {
      "constant": false,
      "inputs": [
        {
          "name": "actorAddress",
          "type": "address"
        }
      ],
      "name": "getActor",
      "outputs": [
        {
          "name": "",
          "type": "address"
        }
      ],
      "payable": false,
      "stateMutability": "nonpayable",
      "type": "function"
    },
    {
      "constant": false,
      "inputs": [
        {
          "name": "actorAddress",
          "type": "address"
        }
      ],
      "name": "actorExists",
      "outputs": [
        {
          "name": "",
          "type": "bool"
        }
      ],
      "payable": false,
      "stateMutability": "nonpayable",
      "type": "function"
    },
    {
      "constant": false,
      "inputs": [],
      "name": "howManyActors",
      "outputs": [
        {
          "name": "",
          "type": "uint256"
        }
      ],
      "payable": false,
      "stateMutability": "nonpayable",
      "type": "function"
    }
  ],
  "bytecode": "0x606060405260006002819055506107638061001b6000396000f300606060405260043610610062576000357c0100000000000000000000000000000000000000000000000000000000900463ffffffff1680634138d167146100675780636a4cd338146100e05780639437b6d014610131578063b86eb9fd1461015a575b600080fd5b341561007257600080fd5b61009e600480803573ffffffffffffffffffffffffffffffffffffffff169060200190919050506101c1565b604051808273ffffffffffffffffffffffffffffffffffffffff1673ffffffffffffffffffffffffffffffffffffffff16815260200191505060405180910390f35b34156100eb57600080fd5b610117600480803573ffffffffffffffffffffffffffffffffffffffff1690602001909190505061022a565b604051808215151515815260200191505060405180910390f35b341561013c57600080fd5b610144610286565b6040518082815260200191505060405180910390f35b341561016557600080fd5b6101a7600480803573ffffffffffffffffffffffffffffffffffffffff1690602001909190803560001916906020019091908035906020019091905050610290565b604051808215151515815260200191505060405180910390f35b6000600160008373ffffffffffffffffffffffffffffffffffffffff1673ffffffffffffffffffffffffffffffffffffffff16815260200190815260200160002060009054906101000a900473ffffffffffffffffffffffffffffffffffffffff169050919050565b6000600115156000808473ffffffffffffffffffffffffffffffffffffffff1673ffffffffffffffffffffffffffffffffffffffff16815260200190815260200160002060009054906101000a900460ff161515149050919050565b6000600254905090565b600061029b8461022a565b15156103fd578383836102ac610409565b808473ffffffffffffffffffffffffffffffffffffffff1673ffffffffffffffffffffffffffffffffffffffff16815260200183600019166000191681526020018281526020019350505050604051809103906000f080151561030e57600080fd5b600160008673ffffffffffffffffffffffffffffffffffffffff1673ffffffffffffffffffffffffffffffffffffffff16815260200190815260200160002060006101000a81548173ffffffffffffffffffffffffffffffffffffffff021916908373ffffffffffffffffffffffffffffffffffffffff16021790555060016000808673ffffffffffffffffffffffffffffffffffffffff1673ffffffffffffffffffffffffffffffffffffffff16815260200190815260200160002060006101000a81548160ff02191690831515021790555060026000815480929190600101919050555060019050610402565b600090505b9392505050565b60405161031e8061041a8339019056006060604052341561000f57600080fd5b60405160608061031e83398101604052808051906020019091908051906020019091908051906020019091905050826000806101000a81548173ffffffffffffffffffffffffffffffffffffffff021916908373ffffffffffffffffffffffffffffffffffffffff16021790555081600181600019169055508060028190555050505061027d806100a16000396000f30060606040526004361061006d576000357c0100000000000000000000000000000000000000000000000000000000900463ffffffff16806317d7de7c1461007257806336ad823f146100a35780635d1ca631146100de5780638524f5a414610133578063fde0817414610184575b600080fd5b341561007d57600080fd5b6100856101ad565b60405180826000191660001916815260200191505060405180910390f35b34156100ae57600080fd5b6100c460048080359060200190919050506101b7565b604051808215151515815260200191505060405180910390f35b34156100e957600080fd5b6100f16101c5565b604051808273ffffffffffffffffffffffffffffffffffffffff1673ffffffffffffffffffffffffffffffffffffffff16815260200191505060405180910390f35b341561013e57600080fd5b61016a600480803573ffffffffffffffffffffffffffffffffffffffff169060200190919050506101ee565b604051808215151515815260200191505060405180910390f35b341561018f57600080fd5b610197610247565b6040518082815260200191505060405180910390f35b6000600154905090565b600081600254149050919050565b60008060009054906101000a900473ffffffffffffffffffffffffffffffffffffffff16905090565b60008173ffffffffffffffffffffffffffffffffffffffff166000809054906101000a900473ffffffffffffffffffffffffffffffffffffffff1673ffffffffffffffffffffffffffffffffffffffff16149050919050565b60006002549050905600a165627a7a7230582003ff0323b65662d00d39f553cc4f2674c5fa04b177284a2558a55d5edc97d4e00029a165627a7a72305820b4a81308f77945947418d1ecc3a9bfadfbba4da10bf85e4e50e219e7443770f00029",
  "source": "pragma solidity ^0.4.17;\n\nimport \"./Actor.sol\";\n\ncontract ActorRegistry {\n    mapping (address => bool) private actorsExist;\n    mapping (address => Actor) private actors;\n    uint256 private countActors;\n    \n    function ActorRegistry() public payable {\n        countActors = 0;\n        \n        //baseline data\n        /*registerActor(0xca35b7d915458ef540ade6068dfe2f44e8fa733c, \"sergio\", 1);\n        registerActor(0x14723a09acff6d2a60dcdf7aa4aff308fddc160c, \"eduardo\", 1);\n        registerActor(0x4b0897b0513fdc7c541b6d9d7e929c4e5364d2db, \"alberto\", 1);\n        registerActor(0x583031d1113ad414f02576bd6afabfb302140225, \"junior\", 1);\n        registerActor(0xdd870fa1b7c4700f2bd7f44238821c26f7392148, \"bas\", 1);*/\n    }\n    \n    function registerActor(address actorAddress, bytes32 actorName, uint256 actorRole) public returns (bool) {\n        if (!actorExists(actorAddress)) {\n            actors[actorAddress] = new Actor(actorAddress, actorName, actorRole);\n            actorsExist[actorAddress] = true;\n            countActors++;\n            return true;\n        }\n        else {\n            return false;\n        }\n    }\n    \n    function getActor(address actorAddress) public returns (Actor) {\n        return actors[actorAddress];\n    }\n    \n    function actorExists(address actorAddress) public returns (bool) {\n        return actorsExist[actorAddress] == true;\n    }\n    \n    function howManyActors() public returns (uint256) {\n        return countActors;\n    }\n}\n",
  "sourcePath": "/Users/sergiopereira/Library/BlockchaingersHackathon/contracts/ActorRegistry.sol",
  "compiler": {
    "name": "solc",
    "version": "0.4.21+commit.dfe3193c.Emscripten.clang"
  },
  "schemaVersion": "2.0.0",
  "updatedAt": "2018-04-07T14:45:48.114Z"
}