{
  "contractName": "File",
  "abi": [
    {
      "inputs": [
        {
          "name": "registryAddress",
          "type": "address"
        },
        {
          "name": "_fileName",
          "type": "string"
        },
        {
          "name": "_fileHash",
          "type": "string"
        }
      ],
      "payable": false,
      "stateMutability": "nonpayable",
      "type": "constructor"
    },
    {
      "constant": false,
      "inputs": [
        {
          "name": "actorAddress",
          "type": "address"
        }
      ],
      "name": "addActorInvolved",
      "outputs": [
        {
          "name": "",
          "type": "bool"
        }
      ],
      "payable": false,
      "stateMutability": "nonpayable",
      "type": "function"
    },
    {
      "constant": false,
      "inputs": [
        {
          "name": "actorAddress",
          "type": "address"
        }
      ],
      "name": "removeActorInvolved",
      "outputs": [
        {
          "name": "",
          "type": "bool"
        }
      ],
      "payable": false,
      "stateMutability": "nonpayable",
      "type": "function"
    },
    {
      "constant": false,
      "inputs": [
        {
          "name": "actorAddress",
          "type": "address"
        }
      ],
      "name": "requestInvolvement",
      "outputs": [],
      "payable": false,
      "stateMutability": "nonpayable",
      "type": "function"
    },
    {
      "constant": false,
      "inputs": [
        {
          "name": "addressToApprove",
          "type": "address"
        }
      ],
      "name": "approveInvolvementRequest",
      "outputs": [
        {
          "name": "",
          "type": "bool"
        }
      ],
      "payable": false,
      "stateMutability": "nonpayable",
      "type": "function"
    },
    {
      "constant": false,
      "inputs": [
        {
          "name": "newFileName",
          "type": "string"
        },
        {
          "name": "newFileHash",
          "type": "string"
        }
      ],
      "name": "updateFile",
      "outputs": [
        {
          "name": "",
          "type": "bool"
        }
      ],
      "payable": false,
      "stateMutability": "nonpayable",
      "type": "function"
    },
    {
      "constant": false,
      "inputs": [
        {
          "name": "actorAddress",
          "type": "address"
        }
      ],
      "name": "isActorOwner",
      "outputs": [
        {
          "name": "",
          "type": "bool"
        }
      ],
      "payable": false,
      "stateMutability": "nonpayable",
      "type": "function"
    },
    {
      "constant": false,
      "inputs": [
        {
          "name": "actorAddress",
          "type": "address"
        }
      ],
      "name": "isActorInvolved",
      "outputs": [
        {
          "name": "",
          "type": "bool"
        }
      ],
      "payable": false,
      "stateMutability": "nonpayable",
      "type": "function"
    },
    {
      "constant": false,
      "inputs": [],
      "name": "howManyActorsInvolved",
      "outputs": [
        {
          "name": "",
          "type": "uint256"
        }
      ],
      "payable": false,
      "stateMutability": "nonpayable",
      "type": "function"
    },
    {
      "constant": false,
      "inputs": [
        {
          "name": "actorAddress",
          "type": "address"
        }
      ],
      "name": "isActorPendingApproval",
      "outputs": [
        {
          "name": "",
          "type": "bool"
        }
      ],
      "payable": false,
      "stateMutability": "nonpayable",
      "type": "function"
    },
    {
      "constant": false,
      "inputs": [],
      "name": "howManyPendingRequests",
      "outputs": [
        {
          "name": "",
          "type": "uint256"
        }
      ],
      "payable": false,
      "stateMutability": "nonpayable",
      "type": "function"
    },
    {
      "constant": false,
      "inputs": [],
      "name": "getFileName",
      "outputs": [
        {
          "name": "",
          "type": "string"
        }
      ],
      "payable": false,
      "stateMutability": "nonpayable",
      "type": "function"
    },
    {
      "constant": false,
      "inputs": [],
      "name": "getFileHash",
      "outputs": [
        {
          "name": "",
          "type": "string"
        }
      ],
      "payable": false,
      "stateMutability": "nonpayable",
      "type": "function"
    },
    {
      "constant": false,
      "inputs": [],
      "name": "getFileLastAuthor",
      "outputs": [
        {
          "name": "",
          "type": "address"
        }
      ],
      "payable": false,
      "stateMutability": "nonpayable",
      "type": "function"
    }
  ],
  "bytecode": "0x606060405234156200001057600080fd5b60405162001292380380620012928339810160405280805190602001909190805182019190602001805182019190505082600160006101000a81548173ffffffffffffffffffffffffffffffffffffffff021916908373ffffffffffffffffffffffffffffffffffffffff160217905550336000806101000a81548173ffffffffffffffffffffffffffffffffffffffff021916908373ffffffffffffffffffffffffffffffffffffffff1602179055506001600260003373ffffffffffffffffffffffffffffffffffffffff1673ffffffffffffffffffffffffffffffffffffffff16815260200190815260200160002060006101000a81548160ff02191690831515021790555060016003819055506000600581905550816006600001908051906020019062000144929190620002b9565b50806006600101908051906020019062000160929190620002b9565b50600060066002018190555033600660030160006101000a81548173ffffffffffffffffffffffffffffffffffffffff021916908373ffffffffffffffffffffffffffffffffffffffff1602179055506000600b819055506006600a600b600081548092919060010191905055815481101515620001da57fe5b9060005260206000209060040201600082018160000190805460018160011615610100020316600290046200021192919062000340565b50600182018160010190805460018160011615610100020316600290046200023b92919062000340565b50600282015481600201556003820160009054906101000a900473ffffffffffffffffffffffffffffffffffffffff168160030160006101000a81548173ffffffffffffffffffffffffffffffffffffffff021916908373ffffffffffffffffffffffffffffffffffffffff160217905550905050505050620003f6565b828054600181600116156101000203166002900490600052602060002090601f016020900481019282601f10620002fc57805160ff19168380011785556200032d565b828001600101855582156200032d579182015b828111156200032c5782518255916020019190600101906200030f565b5b5090506200033c9190620003ce565b5090565b828054600181600116156101000203166002900490600052602060002090601f016020900481019282601f106200037b5780548555620003bb565b82800160010185558215620003bb57600052602060002091601f016020900482015b82811115620003ba5782548255916001019190600101906200039d565b5b509050620003ca9190620003ce565b5090565b620003f391905b80821115620003ef576000816000905550600101620003d5565b5090565b90565b610e8c80620004066000396000f3006060604052600436106100c5576000357c0100000000000000000000000000000000000000000000000000000000900463ffffffff168063018962ec146100ca578063293b7a261461011b578063464ed51c14610170578063529aab5214610228578063693448e5146102795780638493f71f146102b257806396f861ef14610340578063a1788beb14610369578063aa38b7df146103ba578063d670a77b1461040b578063e90ef13e1461045c578063f696142914610485578063fcf6c23c146104d6575b600080fd5b34156100d557600080fd5b610101600480803573ffffffffffffffffffffffffffffffffffffffff16906020019091905050610564565b604051808215151515815260200191505060405180910390f35b341561012657600080fd5b61012e610695565b604051808273ffffffffffffffffffffffffffffffffffffffff1673ffffffffffffffffffffffffffffffffffffffff16815260200191505060405180910390f35b341561017b57600080fd5b61020e600480803590602001908201803590602001908080601f0160208091040260200160405190810160405280939291908181526020018383808284378201915050505050509190803590602001908201803590602001908080601f016020809104026020016040519081016040528093929190818152602001838380828437820191505050505050919050506106c2565b604051808215151515815260200191505060405180910390f35b341561023357600080fd5b61025f600480803573ffffffffffffffffffffffffffffffffffffffff1690602001909190505061083d565b604051808215151515815260200191505060405180910390f35b341561028457600080fd5b6102b0600480803573ffffffffffffffffffffffffffffffffffffffff16906020019091905050610970565b005b34156102bd57600080fd5b6102c56109dd565b6040518080602001828103825283818151815260200191508051906020019080838360005b838110156103055780820151818401526020810190506102ea565b50505050905090810190601f1680156103325780820380516001836020036101000a031916815260200191505b509250505060405180910390f35b341561034b57600080fd5b610353610a88565b6040518082815260200191505060405180910390f35b341561037457600080fd5b6103a0600480803573ffffffffffffffffffffffffffffffffffffffff16906020019091905050610a92565b604051808215151515815260200191505060405180910390f35b34156103c557600080fd5b6103f1600480803573ffffffffffffffffffffffffffffffffffffffff16906020019091905050610aeb565b604051808215151515815260200191505060405180910390f35b341561041657600080fd5b610442600480803573ffffffffffffffffffffffffffffffffffffffff16906020019091905050610b48565b604051808215151515815260200191505060405180910390f35b341561046757600080fd5b61046f610c0e565b6040518082815260200191505060405180910390f35b341561049057600080fd5b6104bc600480803573ffffffffffffffffffffffffffffffffffffffff16906020019091905050610c18565b604051808215151515815260200191505060405180910390f35b34156104e157600080fd5b6104e9610c75565b6040518080602001828103825283818151815260200191508051906020019080838360005b8381101561052957808201518184015260208101905061050e565b50505050905090810190601f1680156105565780820380516001836020036101000a031916815260200191505b509250505060405180910390f35b600060011515600460008473ffffffffffffffffffffffffffffffffffffffff1673ffffffffffffffffffffffffffffffffffffffff16815260200190815260200160002060009054906101000a900460ff161515141561068b576001600260008473ffffffffffffffffffffffffffffffffffffffff1673ffffffffffffffffffffffffffffffffffffffff16815260200190815260200160002060006101000a81548160ff0219169083151502179055506000600460008473ffffffffffffffffffffffffffffffffffffffff1673ffffffffffffffffffffffffffffffffffffffff16815260200190815260200160002060006101000a81548160ff0219169083151502179055506005600081548092919060019003919050555060019050610690565b600090505b919050565b6000600660030160009054906101000a900473ffffffffffffffffffffffffffffffffffffffff16905090565b600080838160000190805190602001906106dd929190610d20565b50828160010190805190602001906106f6929190610d20565b5060008160020181905550338160030160006101000a81548173ffffffffffffffffffffffffffffffffffffffff021916908373ffffffffffffffffffffffffffffffffffffffff16021790555080600a600b60008154809291906001019190505581548110151561076457fe5b906000526020600020906004020160008201816000019080546001816001161561010002031660029004610799929190610da0565b50600182018160010190805460018160011615610100020316600290046107c1929190610da0565b50600282015481600201556003820160009054906101000a900473ffffffffffffffffffffffffffffffffffffffff168160030160006101000a81548173ffffffffffffffffffffffffffffffffffffffff021916908373ffffffffffffffffffffffffffffffffffffffff1602179055509050505092915050565b60003373ffffffffffffffffffffffffffffffffffffffff166000809054906101000a900473ffffffffffffffffffffffffffffffffffffffff1673ffffffffffffffffffffffffffffffffffffffff1614151561089a57600080fd5b60001515600260008473ffffffffffffffffffffffffffffffffffffffff1673ffffffffffffffffffffffffffffffffffffffff16815260200190815260200160002060009054906101000a900460ff1615151415610966576001600260008473ffffffffffffffffffffffffffffffffffffffff1673ffffffffffffffffffffffffffffffffffffffff16815260200190815260200160002060006101000a81548160ff0219169083151502179055506003600081548092919060010191905055506001905061096b565b600090505b919050565b6001600460008373ffffffffffffffffffffffffffffffffffffffff1673ffffffffffffffffffffffffffffffffffffffff16815260200190815260200160002060006101000a81548160ff02191690831515021790555060056000815480929190600101919050555050565b6109e5610e27565b60066001018054600181600116156101000203166002900480601f016020809104026020016040519081016040528092919081815260200182805460018160011615610100020316600290048015610a7e5780601f10610a5357610100808354040283529160200191610a7e565b820191906000526020600020905b815481529060010190602001808311610a6157829003601f168201915b5050505050905090565b6000600554905090565b60008173ffffffffffffffffffffffffffffffffffffffff166000809054906101000a900473ffffffffffffffffffffffffffffffffffffffff1673ffffffffffffffffffffffffffffffffffffffff16149050919050565b600060011515600260008473ffffffffffffffffffffffffffffffffffffffff1673ffffffffffffffffffffffffffffffffffffffff16815260200190815260200160002060009054906101000a900460ff161515149050919050565b600060011515600260008473ffffffffffffffffffffffffffffffffffffffff1673ffffffffffffffffffffffffffffffffffffffff16815260200190815260200160002060009054906101000a900460ff1615151415610c04576000600260008473ffffffffffffffffffffffffffffffffffffffff1673ffffffffffffffffffffffffffffffffffffffff16815260200190815260200160002060006101000a81548160ff02191690831515021790555060019050610c09565b600090505b919050565b6000600354905090565b600060011515600460008473ffffffffffffffffffffffffffffffffffffffff1673ffffffffffffffffffffffffffffffffffffffff16815260200190815260200160002060009054906101000a900460ff161515149050919050565b610c7d610e27565b60066000018054600181600116156101000203166002900480601f016020809104026020016040519081016040528092919081815260200182805460018160011615610100020316600290048015610d165780601f10610ceb57610100808354040283529160200191610d16565b820191906000526020600020905b815481529060010190602001808311610cf957829003601f168201915b5050505050905090565b828054600181600116156101000203166002900490600052602060002090601f016020900481019282601f10610d6157805160ff1916838001178555610d8f565b82800160010185558215610d8f579182015b82811115610d8e578251825591602001919060010190610d73565b5b509050610d9c9190610e3b565b5090565b828054600181600116156101000203166002900490600052602060002090601f016020900481019282601f10610dd95780548555610e16565b82800160010185558215610e1657600052602060002091601f016020900482015b82811115610e15578254825591600101919060010190610dfa565b5b509050610e239190610e3b565b5090565b602060405190810160405280600081525090565b610e5d91905b80821115610e59576000816000905550600101610e41565b5090565b905600a165627a7a7230582032f350b4a4e55ee0fcc5c1de54c8b0457c317361baf1d44353c8caddeafc4e780029",
  "source": "pragma solidity ^0.4.17;\n\nimport \"./ActorRegistry.sol\";\n\ncontract File {\n    address private owner;\n    \n    ActorRegistry actorRegistry;\n    \n    mapping(address => bool) private actorsInvolved;\n    uint256 countActorsInvolved;\n    \n    mapping(address => bool) private pendingRequests;\n    uint256 countPendingRequests;\n\n    struct FileState {\n        string fileName;\n        string fileHash;\n        uint256 timestamp;\n        address lastUpdatedBy;\n    }\n    \n    FileState private currentState;\n    FileState[] private changeLog;\n    uint256 private countUpdates;\n    \n    function File(address registryAddress, string _fileName, string _fileHash) public {\n        //\"0xbfd5b36fa6f5de48d807397e9b68d0a0d694e38e\", \"file1\", \"docx\", \"hello world\"\n        actorRegistry = ActorRegistry(registryAddress);\n        //require (actorRegistry.actorExists(msg.sender));\n        \n        owner = msg.sender;\n        \n        actorsInvolved[msg.sender] = true;\n        countActorsInvolved = 1;\n        countPendingRequests = 0;\n        \n        currentState.fileName = _fileName;\n        currentState.fileHash = _fileHash;\n        currentState.timestamp = 0;\n        currentState.lastUpdatedBy = msg.sender;\n        \n        countUpdates = 0;\n        changeLog[countUpdates++] = currentState;\n    }\n    \n    function addActorInvolved(address actorAddress) public returns (bool) {\n        require (owner == msg.sender);\n        \n        if (actorsInvolved[actorAddress] == false) {\n            actorsInvolved[actorAddress] = true;\n            countActorsInvolved++;\n            return true;\n        }\n        else {\n            return false;\n        }\n    }\n    \n    function removeActorInvolved(address actorAddress) public returns (bool) {\n        //require (owner == msg.sender && actorRegistry.actorExists(actorAddress));\n        \n        if (actorsInvolved[actorAddress] == true) {\n            actorsInvolved[actorAddress] = false;\n            return true;\n        }\n        else {\n            return false;\n        }\n    }\n    \n    function requestInvolvement(address actorAddress) public {\n        //require (actorRegistry.actorExists(msg.sender));\n        \n        //pendingRequests[msg.sender] = true;\n        pendingRequests[actorAddress] = true;\n        countPendingRequests++;\n    }\n    \n    function approveInvolvementRequest(address addressToApprove) public returns (bool) {\n        //require (owner == msg.sender);\n        \n        if (pendingRequests[addressToApprove] == true) {\n            actorsInvolved[addressToApprove] = true;\n            pendingRequests[addressToApprove] = false;\n            countPendingRequests--;\n            return true;\n        }\n        else {\n            return false;\n        }\n    }\n    \n    function updateFile(string newFileName, string newFileHash) public returns (bool) {\n        //require(actorRegistry.actorExists(msg.sender));\n        \n        FileState newState;\n        newState.fileName = newFileName;\n        newState.fileHash = newFileHash;\n        newState.timestamp = 0;\n        newState.lastUpdatedBy = msg.sender;\n        \n        changeLog[countUpdates++] = newState;\n    }\n    \n    function isActorOwner(address actorAddress) public returns (bool) {\n        return owner == actorAddress;\n    }\n    \n    function isActorInvolved(address actorAddress) public returns (bool) {\n        return actorsInvolved[actorAddress] == true;\n    }\n    \n    function howManyActorsInvolved() public returns (uint256) {\n        return countActorsInvolved;\n    }\n    \n    function isActorPendingApproval(address actorAddress) public returns (bool) {\n        return pendingRequests[actorAddress] == true;\n    }\n    \n    function howManyPendingRequests() public returns (uint256) {\n        return countPendingRequests;\n    }\n    \n    function getFileName() public returns (string) {\n        return currentState.fileName;\n    }\n    \n    function getFileHash() public returns (string) {\n        return currentState.fileHash;\n    }\n    \n    function getFileLastAuthor() public returns (address) {\n        return currentState.lastUpdatedBy;\n    }\n}\n",
  "sourcePath": "/Users/sergiopereira/Library/BlockchaingersHackathon/contracts/File.sol",
  "compiler": {
    "name": "solc",
    "version": "0.4.21+commit.dfe3193c.Emscripten.clang"
  },
  "schemaVersion": "2.0.0",
  "updatedAt": "2018-04-07T14:45:48.118Z"
}